{
  "contractName": "FileManage",
  "abi": [
    {
      "inputs": [],
      "stateMutability": "nonpayable",
      "type": "constructor"
    },
    {
      "anonymous": false,
      "inputs": [
        {
          "indexed": false,
          "internalType": "address",
          "name": "sender",
          "type": "address"
        },
        {
          "indexed": false,
          "internalType": "string",
          "name": "content",
          "type": "string"
        }
      ],
      "name": "fileAdded",
      "type": "event"
    },
    {
      "inputs": [
        {
          "internalType": "string",
          "name": "fileContent",
          "type": "string"
        },
        {
          "internalType": "string",
          "name": "fileName",
          "type": "string"
        },
        {
          "internalType": "string",
          "name": "fileType",
          "type": "string"
        },
        {
          "internalType": "uint256",
          "name": "dateTime",
          "type": "uint256"
        }
      ],
      "name": "add",
      "outputs": [],
      "stateMutability": "nonpayable",
      "type": "function"
    },
    {
      "inputs": [
        {
          "internalType": "uint256",
          "name": "index",
          "type": "uint256"
        }
      ],
      "name": "read",
      "outputs": [
        {
          "internalType": "string",
          "name": "fileContent",
          "type": "string"
        },
        {
          "internalType": "string",
          "name": "fileName",
          "type": "string"
        },
        {
          "internalType": "string",
          "name": "fileType",
          "type": "string"
        },
        {
          "internalType": "uint256",
          "name": "dateTime",
          "type": "uint256"
        }
      ],
      "stateMutability": "view",
      "type": "function",
      "constant": true
    },
    {
      "inputs": [],
      "name": "total",
      "outputs": [
        {
          "internalType": "uint256",
          "name": "",
          "type": "uint256"
        }
      ],
      "stateMutability": "view",
      "type": "function",
      "constant": true
    }
  ],
  "bytecode": "0x608060405234801561001057600080fd5b506109db806100206000396000f3fe608060405234801561001057600080fd5b50600436106100415760003560e01c80632ddbd13a146100465780633f647a9714610064578063ed2e5a9714610080575b600080fd5b61004e6100b3565b60405161005b9190610539565b60405180910390f35b61007e600480360381019061007991906106da565b6100fc565b005b61009a60048036038101906100959190610795565b610226565b6040516100aa949392919061084a565b60405180910390f35b60008060003373ffffffffffffffffffffffffffffffffffffffff1673ffffffffffffffffffffffffffffffffffffffff16815260200190815260200160002080549050905090565b6000803373ffffffffffffffffffffffffffffffffffffffff1673ffffffffffffffffffffffffffffffffffffffff168152602001908152602001600020604051806080016040528086815260200185815260200184815260200183815250908060018154018082558091505060019003906000526020600020906004020160009091909190915060008201518160000190805190602001906101a092919061047d565b5060208201518160010190805190602001906101bd92919061047d565b5060408201518160020190805190602001906101da92919061047d565b506060820151816003015550507f1da8e28e528020f0bb9de07bec909ed9f712b58a70ed5d38fb10932d04e0ebc433856040516102189291906108e5565b60405180910390a150505050565b60608060606000806000803373ffffffffffffffffffffffffffffffffffffffff1673ffffffffffffffffffffffffffffffffffffffff168152602001908152602001600020868154811061027e5761027d610915565b5b90600052602060002090600402016040518060800160405290816000820180546102a790610973565b80601f01602080910402602001604051908101604052809291908181526020018280546102d390610973565b80156103205780601f106102f557610100808354040283529160200191610320565b820191906000526020600020905b81548152906001019060200180831161030357829003601f168201915b5050505050815260200160018201805461033990610973565b80601f016020809104026020016040519081016040528092919081815260200182805461036590610973565b80156103b25780601f10610387576101008083540402835291602001916103b2565b820191906000526020600020905b81548152906001019060200180831161039557829003601f168201915b505050505081526020016002820180546103cb90610973565b80601f01602080910402602001604051908101604052809291908181526020018280546103f790610973565b80156104445780601f1061041957610100808354040283529160200191610444565b820191906000526020600020905b81548152906001019060200180831161042757829003601f168201915b50505050508152602001600382015481525050905080600001518160200151826040015183606001519450945094509450509193509193565b82805461048990610973565b90600052602060002090601f0160209004810192826104ab57600085556104f2565b82601f106104c457805160ff19168380011785556104f2565b828001600101855582156104f2579182015b828111156104f15782518255916020019190600101906104d6565b5b5090506104ff9190610503565b5090565b5b8082111561051c576000816000905550600101610504565b5090565b6000819050919050565b61053381610520565b82525050565b600060208201905061054e600083018461052a565b92915050565b6000604051905090565b600080fd5b600080fd5b600080fd5b600080fd5b6000601f19601f8301169050919050565b7f4e487b7100000000000000000000000000000000000000000000000000000000600052604160045260246000fd5b6105bb82610572565b810181811067ffffffffffffffff821117156105da576105d9610583565b5b80604052505050565b60006105ed610554565b90506105f982826105b2565b919050565b600067ffffffffffffffff82111561061957610618610583565b5b61062282610572565b9050602081019050919050565b82818337600083830152505050565b600061065161064c846105fe565b6105e3565b90508281526020810184848401111561066d5761066c61056d565b5b61067884828561062f565b509392505050565b600082601f83011261069557610694610568565b5b81356106a584826020860161063e565b91505092915050565b6106b781610520565b81146106c257600080fd5b50565b6000813590506106d4816106ae565b92915050565b600080600080608085870312156106f4576106f361055e565b5b600085013567ffffffffffffffff81111561071257610711610563565b5b61071e87828801610680565b945050602085013567ffffffffffffffff81111561073f5761073e610563565b5b61074b87828801610680565b935050604085013567ffffffffffffffff81111561076c5761076b610563565b5b61077887828801610680565b9250506060610789878288016106c5565b91505092959194509250565b6000602082840312156107ab576107aa61055e565b5b60006107b9848285016106c5565b91505092915050565b600081519050919050565b600082825260208201905092915050565b60005b838110156107fc5780820151818401526020810190506107e1565b8381111561080b576000848401525b50505050565b600061081c826107c2565b61082681856107cd565b93506108368185602086016107de565b61083f81610572565b840191505092915050565b600060808201905081810360008301526108648187610811565b905081810360208301526108788186610811565b9050818103604083015261088c8185610811565b905061089b606083018461052a565b95945050505050565b600073ffffffffffffffffffffffffffffffffffffffff82169050919050565b60006108cf826108a4565b9050919050565b6108df816108c4565b82525050565b60006040820190506108fa60008301856108d6565b818103602083015261090c8184610811565b90509392505050565b7f4e487b7100000000000000000000000000000000000000000000000000000000600052603260045260246000fd5b7f4e487b7100000000000000000000000000000000000000000000000000000000600052602260045260246000fd5b6000600282049050600182168061098b57607f821691505b6020821081141561099f5761099e610944565b5b5091905056fea264697066735822122067732aad57de111cc8dbd23736dee5e12fbd1ecaace76e1d26c2a248cef917fd64736f6c63430008090033",
  "immutableReferences": {},
  "source": "// SPDX-License-Identifier: GPL-3.0\r\npragma solidity ^0.8.9;\r\n\r\ncontract FileManage {\r\n    struct File {\r\n        string Content;\r\n        string Name;\r\n        string Type;\r\n        uint DateTime;\r\n    }\r\n    mapping(address => File[]) _files;\r\n\r\n    event fileAdded(address sender, string content);\r\n\r\n    constructor() { }\r\n\r\n    function add\r\n    (\r\n        string memory fileContent,\r\n        string memory fileName,\r\n        string memory fileType,\r\n        uint dateTime\r\n    )\r\n        public\r\n    {\r\n        _files[msg.sender].push(File({\r\n            Content: fileContent,\r\n            Name: fileName,\r\n            Type: fileType,\r\n            DateTime: dateTime\r\n        }));\r\n\r\n        emit fileAdded(msg.sender, fileContent);\r\n    }\r\n\r\n    function read\r\n    (\r\n        uint index\r\n    )\r\n        public\r\n        view\r\n        returns\r\n        (\r\n            string memory fileContent,\r\n            string memory fileName,\r\n            string memory fileType,\r\n            uint dateTime\r\n        )\r\n    {\r\n        File memory file = _files[msg.sender][index];\r\n        return (\r\n            file.Content,\r\n            file.Name,\r\n            file.Type,\r\n            file.DateTime\r\n        );\r\n    }\r\n\r\n    function total()\r\n        public\r\n        view\r\n        returns (uint)\r\n    {\r\n        return _files[msg.sender].length;\r\n    }    \r\n}",
  "sourcePath": "C:/Dev/Projetos/git/DFUS/smart-contract/contracts/FileManage.sol",
  "compiler": {
    "name": "solc",
    "version": "0.8.9+commit.e5eed63a.Emscripten.clang"
  },
  "schemaVersion": "3.3.4",
  "updatedAt": "2021-10-02T13:21:51.777Z",
  "networkType": "ethereum",
  "devdoc": {
    "kind": "dev",
    "methods": {},
    "version": 1
  },
  "userdoc": {
    "kind": "user",
    "methods": {},
    "version": 1
  }
}